{
  "_format": "hh-sol-artifact-1",
  "contractName": "Hostel",
  "sourceName": "contracts/Hostel.sol",
  "abi": [
    {
      "inputs": [
        {
          "internalType": "uint256",
          "name": "",
          "type": "uint256"
        }
      ],
      "name": "Rent_by_No",
      "outputs": [
        {
          "internalType": "uint256",
          "name": "rentno",
          "type": "uint256"
        },
        {
          "internalType": "uint256",
          "name": "roomid",
          "type": "uint256"
        },
        {
          "internalType": "uint256",
          "name": "agreementid",
          "type": "uint256"
        },
        {
          "internalType": "string",
          "name": "Roomname",
          "type": "string"
        },
        {
          "internalType": "string",
          "name": "RoomAddress",
          "type": "string"
        },
        {
          "internalType": "uint256",
          "name": "rent_per_month",
          "type": "uint256"
        },
        {
          "internalType": "uint256",
          "name": "timestamp",
          "type": "uint256"
        },
        {
          "internalType": "address payable",
          "name": "tenantAddress",
          "type": "address"
        },
        {
          "internalType": "address payable",
          "name": "landlordAddress",
          "type": "address"
        }
      ],
      "stateMutability": "view",
      "type": "function"
    },
    {
      "inputs": [
        {
          "internalType": "uint256",
          "name": "",
          "type": "uint256"
        }
      ],
      "name": "RoomAgreement_by_No",
      "outputs": [
        {
          "internalType": "uint256",
          "name": "roomid",
          "type": "uint256"
        },
        {
          "internalType": "uint256",
          "name": "agreementid",
          "type": "uint256"
        },
        {
          "internalType": "string",
          "name": "Roomname",
          "type": "string"
        },
        {
          "internalType": "string",
          "name": "RoomAddress",
          "type": "string"
        },
        {
          "internalType": "uint256",
          "name": "rent_per_month",
          "type": "uint256"
        },
        {
          "internalType": "uint256",
          "name": "securityDeposit",
          "type": "uint256"
        },
        {
          "internalType": "uint256",
          "name": "lockInPeriod",
          "type": "uint256"
        },
        {
          "internalType": "uint256",
          "name": "timestamp",
          "type": "uint256"
        },
        {
          "internalType": "address payable",
          "name": "tenantAddress",
          "type": "address"
        },
        {
          "internalType": "address payable",
          "name": "landlordAddress",
          "type": "address"
        }
      ],
      "stateMutability": "view",
      "type": "function"
    },
    {
      "inputs": [
        {
          "internalType": "uint256",
          "name": "",
          "type": "uint256"
        }
      ],
      "name": "Room_by_No",
      "outputs": [
        {
          "internalType": "uint256",
          "name": "roomid",
          "type": "uint256"
        },
        {
          "internalType": "uint256",
          "name": "agreementid",
          "type": "uint256"
        },
        {
          "internalType": "string",
          "name": "roomname",
          "type": "string"
        },
        {
          "internalType": "string",
          "name": "roomaddress",
          "type": "string"
        },
        {
          "internalType": "uint256",
          "name": "rent_per_month",
          "type": "uint256"
        },
        {
          "internalType": "uint256",
          "name": "securityDeposit",
          "type": "uint256"
        },
        {
          "internalType": "uint256",
          "name": "timestamp",
          "type": "uint256"
        },
        {
          "internalType": "bool",
          "name": "vacant",
          "type": "bool"
        },
        {
          "internalType": "address payable",
          "name": "landlord",
          "type": "address"
        },
        {
          "internalType": "address payable",
          "name": "currentTenant",
          "type": "address"
        }
      ],
      "stateMutability": "view",
      "type": "function"
    },
    {
      "inputs": [
        {
          "internalType": "string",
          "name": "_roomname",
          "type": "string"
        },
        {
          "internalType": "string",
          "name": "_roomaddress",
          "type": "string"
        },
        {
          "internalType": "uint256",
          "name": "_rentcost",
          "type": "uint256"
        },
        {
          "internalType": "uint256",
          "name": "_securitydeposit",
          "type": "uint256"
        }
      ],
      "name": "addRoom",
      "outputs": [],
      "stateMutability": "nonpayable",
      "type": "function"
    },
    {
      "inputs": [
        {
          "internalType": "uint256",
          "name": "_index",
          "type": "uint256"
        }
      ],
      "name": "agreementCompleted",
      "outputs": [],
      "stateMutability": "payable",
      "type": "function"
    },
    {
      "inputs": [
        {
          "internalType": "uint256",
          "name": "_index",
          "type": "uint256"
        }
      ],
      "name": "agreementTerminated",
      "outputs": [],
      "stateMutability": "nonpayable",
      "type": "function"
    },
    {
      "inputs": [],
      "name": "no_of_agreement",
      "outputs": [
        {
          "internalType": "uint256",
          "name": "",
          "type": "uint256"
        }
      ],
      "stateMutability": "view",
      "type": "function"
    },
    {
      "inputs": [],
      "name": "no_of_rent",
      "outputs": [
        {
          "internalType": "uint256",
          "name": "",
          "type": "uint256"
        }
      ],
      "stateMutability": "view",
      "type": "function"
    },
    {
      "inputs": [],
      "name": "no_of_rooms",
      "outputs": [
        {
          "internalType": "uint256",
          "name": "",
          "type": "uint256"
        }
      ],
      "stateMutability": "view",
      "type": "function"
    },
    {
      "inputs": [
        {
          "internalType": "uint256",
          "name": "_index",
          "type": "uint256"
        }
      ],
      "name": "payRent",
      "outputs": [],
      "stateMutability": "payable",
      "type": "function"
    },
    {
      "inputs": [
        {
          "internalType": "uint256",
          "name": "_index",
          "type": "uint256"
        }
      ],
      "name": "signAgreement",
      "outputs": [],
      "stateMutability": "payable",
      "type": "function"
    }
  ],
  "bytecode": "0x608060405260006002556000600355600060045534801561001f57600080fd5b506129168061002f6000396000f3fe60806040526004361061009c5760003560e01c80634f5e4428116100645780634f5e44281461019057806359e2cbec146101b957806363e475bd146101e457806375eb9ef61461020d578063d0d205b714610238578063d9e8843f1461027d5761009c565b806302bb2725146100a157806303742de0146100e75780630ff2a8061461010357806316abb8a11461012e578063469595871461014a575b600080fd5b3480156100ad57600080fd5b506100c860048036038101906100c39190611f36565b610299565b6040516100de9a99989796959493929190612328565b60405180910390f35b61010160048036038101906100fc9190611f36565b61043d565b005b34801561010f57600080fd5b50610118610dbe565b6040516101259190612263565b60405180910390f35b61014860048036038101906101439190611f36565b610dc4565b005b34801561015657600080fd5b50610171600480360381019061016c9190611f36565b61107c565b6040516101879a9998979695949392919061227e565b60405180910390f35b34801561019c57600080fd5b506101b760048036038101906101b29190611f36565b61122d565b005b3480156101c557600080fd5b506101ce6113dc565b6040516101db9190612263565b60405180910390f35b3480156101f057600080fd5b5061020b60048036038101906102069190611ea3565b6113e2565b005b34801561021957600080fd5b506102226115ee565b60405161022f9190612263565b60405180910390f35b34801561024457600080fd5b5061025f600480360381019061025a9190611f36565b6115f4565b604051610274999897969594939291906123d2565b60405180910390f35b61029760048036038101906102929190611f36565b611792565b005b60066020528060005260406000206000915090508060000154908060010154908060020180546102c8906125bf565b80601f01602080910402602001604051908101604052809291908181526020018280546102f4906125bf565b80156103415780601f1061031657610100808354040283529160200191610341565b820191906000526020600020905b81548152906001019060200180831161032457829003601f168201915b505050505090806003018054610356906125bf565b80601f0160208091040260200160405190810160405280929190818152602001828054610382906125bf565b80156103cf5780601f106103a4576101008083540402835291602001916103cf565b820191906000526020600020905b8154815290600101906020018083116103b257829003601f168201915b5050505050908060040154908060050154908060060154908060070154908060080160009054906101000a900473ffffffffffffffffffffffffffffffffffffffff16908060090160009054906101000a900473ffffffffffffffffffffffffffffffffffffffff1690508a565b806005600082815260200190815260200160002060070160019054906101000a900473ffffffffffffffffffffffffffffffffffffffff1673ffffffffffffffffffffffffffffffffffffffff163373ffffffffffffffffffffffffffffffffffffffff1614156104e3576040517f08c379a00000000000000000000000000000000000000000000000000000000081526004016104da90612183565b60405180910390fd5b816005600082815260200190815260200160002060050154600560008381526020019081526020016000206004015461051c91906124df565b34101561055e576040517f08c379a0000000000000000000000000000000000000000000000000000000008152600401610555906121c3565b60405180910390fd5b82600115156005600083815260200190815260200160002060070160009054906101000a900460ff161515146105c9576040517f08c379a00000000000000000000000000000000000000000000000000000000081526004016105c0906121e3565b60405180910390fd5b600073ffffffffffffffffffffffffffffffffffffffff163373ffffffffffffffffffffffffffffffffffffffff161415610639576040517f08c379a000000000000000000000000000000000000000000000000000000000815260040161063090612243565b60405180910390fd5b60006005600086815260200190815260200160002060070160019054906101000a900473ffffffffffffffffffffffffffffffffffffffff1690506000600560008781526020019081526020016000206005015460056000888152602001908152602001600020600401546106ae91906124df565b90508173ffffffffffffffffffffffffffffffffffffffff166108fc829081150290604051600060405180830381858888f193505050501580156106f6573d6000803e3d6000fd5b506003600081548092919061070a90612622565b9190505550336005600088815260200190815260200160002060080160006101000a81548173ffffffffffffffffffffffffffffffffffffffff021916908373ffffffffffffffffffffffffffffffffffffffff16021790555060006005600088815260200190815260200160002060070160006101000a81548160ff02191690831515021790555042600560008881526020019081526020016000206006018190555060035460056000888152602001908152602001600020600101819055506040518061014001604052808781526020016003548152602001600560008981526020019081526020016000206002018054610806906125bf565b80601f0160208091040260200160405190810160405280929190818152602001828054610832906125bf565b801561087f5780601f106108545761010080835404028352916020019161087f565b820191906000526020600020905b81548152906001019060200180831161086257829003601f168201915b505050505081526020016005600089815260200190815260200160002060030180546108aa906125bf565b80601f01602080910402602001604051908101604052809291908181526020018280546108d6906125bf565b80156109235780601f106108f857610100808354040283529160200191610923565b820191906000526020600020905b81548152906001019060200180831161090657829003601f168201915b5050505050815260200160056000898152602001908152602001600020600401548152602001600560008981526020019081526020016000206005015481526020016301e1338081526020014281526020013373ffffffffffffffffffffffffffffffffffffffff1681526020018373ffffffffffffffffffffffffffffffffffffffff16815250600660006003548152602001908152602001600020600082015181600001556020820151816001015560408201518160020190805190602001906109f0929190611d83565b506060820151816003019080519060200190610a0d929190611d83565b506080820151816004015560a0820151816005015560c0820151816006015560e082015181600701556101008201518160080160006101000a81548173ffffffffffffffffffffffffffffffffffffffff021916908373ffffffffffffffffffffffffffffffffffffffff1602179055506101208201518160090160006101000a81548173ffffffffffffffffffffffffffffffffffffffff021916908373ffffffffffffffffffffffffffffffffffffffff16021790555090505060046000815480929190610adc90612622565b919050555060405180610120016040528060045481526020018781526020016003548152602001600560008981526020019081526020016000206002018054610b24906125bf565b80601f0160208091040260200160405190810160405280929190818152602001828054610b50906125bf565b8015610b9d5780601f10610b7257610100808354040283529160200191610b9d565b820191906000526020600020905b815481529060010190602001808311610b8057829003601f168201915b50505050508152602001600560008981526020019081526020016000206003018054610bc8906125bf565b80601f0160208091040260200160405190810160405280929190818152602001828054610bf4906125bf565b8015610c415780601f10610c1657610100808354040283529160200191610c41565b820191906000526020600020905b815481529060010190602001808311610c2457829003601f168201915b50505050508152602001600560008981526020019081526020016000206004015481526020014281526020013373ffffffffffffffffffffffffffffffffffffffff1681526020018373ffffffffffffffffffffffffffffffffffffffff168152506007600060045481526020019081526020016000206000820151816000015560208201518160010155604082015181600201556060820151816003019080519060200190610cf2929190611d83565b506080820151816004019080519060200190610d0f929190611d83565b5060a0820151816005015560c0820151816006015560e08201518160070160006101000a81548173ffffffffffffffffffffffffffffffffffffffff021916908373ffffffffffffffffffffffffffffffffffffffff1602179055506101008201518160080160006101000a81548173ffffffffffffffffffffffffffffffffffffffff021916908373ffffffffffffffffffffffffffffffffffffffff160217905550905050505050505050565b60035481565b806005600082815260200190815260200160002060070160019054906101000a900473ffffffffffffffffffffffffffffffffffffffff1673ffffffffffffffffffffffffffffffffffffffff163373ffffffffffffffffffffffffffffffffffffffff1614610e69576040517f08c379a0000000000000000000000000000000000000000000000000000000008152600401610e6090612163565b60405180910390fd5b81600060056000838152602001908152602001600020600101549050600060066000838152602001908152602001600020600601546006600084815260200190815260200160002060070154610ebf91906124df565b9050804211610f03576040517f08c379a0000000000000000000000000000000000000000000000000000000008152600401610efa90612203565b60405180910390fd5b600073ffffffffffffffffffffffffffffffffffffffff163373ffffffffffffffffffffffffffffffffffffffff161415610f3d57600080fd5b600015156005600087815260200190815260200160002060070160009054906101000a900460ff16151514610fa7576040517f08c379a0000000000000000000000000000000000000000000000000000000008152600401610f9e90612143565b60405180910390fd5b60016005600087815260200190815260200160002060070160006101000a81548160ff02191690831515021790555060006005600087815260200190815260200160002060080160009054906101000a900473ffffffffffffffffffffffffffffffffffffffff1690506000600560008881526020019081526020016000206005015490508173ffffffffffffffffffffffffffffffffffffffff166108fc829081150290604051600060405180830381858888f19350505050158015611072573d6000803e3d6000fd5b5050505050505050565b60056020528060005260406000206000915090508060000154908060010154908060020180546110ab906125bf565b80601f01602080910402602001604051908101604052809291908181526020018280546110d7906125bf565b80156111245780601f106110f957610100808354040283529160200191611124565b820191906000526020600020905b81548152906001019060200180831161110757829003601f168201915b505050505090806003018054611139906125bf565b80601f0160208091040260200160405190810160405280929190818152602001828054611165906125bf565b80156111b25780601f10611187576101008083540402835291602001916111b2565b820191906000526020600020905b81548152906001019060200180831161119557829003601f168201915b5050505050908060040154908060050154908060060154908060070160009054906101000a900460ff16908060070160019054906101000a900473ffffffffffffffffffffffffffffffffffffffff16908060080160009054906101000a900473ffffffffffffffffffffffffffffffffffffffff1690508a565b806005600082815260200190815260200160002060070160019054906101000a900473ffffffffffffffffffffffffffffffffffffffff1673ffffffffffffffffffffffffffffffffffffffff163373ffffffffffffffffffffffffffffffffffffffff16146112d2576040517f08c379a00000000000000000000000000000000000000000000000000000000081526004016112c990612163565b60405180910390fd5b8160006005600083815260200190815260200160002060010154905060006006600083815260200190815260200160002060060154600660008481526020019081526020016000206007015461132891906124df565b905080421061136c576040517f08c379a000000000000000000000000000000000000000000000000000000000815260040161136390612123565b60405180910390fd5b600073ffffffffffffffffffffffffffffffffffffffff163373ffffffffffffffffffffffffffffffffffffffff1614156113a657600080fd5b60016005600087815260200190815260200160002060070160006101000a81548160ff0219169083151502179055505050505050565b60025481565b600073ffffffffffffffffffffffffffffffffffffffff163373ffffffffffffffffffffffffffffffffffffffff16141561141c57600080fd5b6002600081548092919061142f90612622565b91905055506000600190506040518061014001604052806002548152602001600081526020018681526020018581526020018481526020018381526020016000815260200182151581526020013373ffffffffffffffffffffffffffffffffffffffff168152602001600073ffffffffffffffffffffffffffffffffffffffff16815250600560006002548152602001908152602001600020600082015181600001556020820151816001015560408201518160020190805190602001906114f8929190611d83565b506060820151816003019080519060200190611515929190611d83565b506080820151816004015560a0820151816005015560c0820151816006015560e08201518160070160006101000a81548160ff0219169083151502179055506101008201518160070160016101000a81548173ffffffffffffffffffffffffffffffffffffffff021916908373ffffffffffffffffffffffffffffffffffffffff1602179055506101208201518160080160006101000a81548173ffffffffffffffffffffffffffffffffffffffff021916908373ffffffffffffffffffffffffffffffffffffffff1602179055509050505050505050565b60045481565b6007602052806000526040600020600091509050806000015490806001015490806002015490806003018054611629906125bf565b80601f0160208091040260200160405190810160405280929190818152602001828054611655906125bf565b80156116a25780601f10611677576101008083540402835291602001916116a2565b820191906000526020600020905b81548152906001019060200180831161168557829003601f168201915b5050505050908060040180546116b7906125bf565b80601f01602080910402602001604051908101604052809291908181526020018280546116e3906125bf565b80156117305780601f1061170557610100808354040283529160200191611730565b820191906000526020600020905b81548152906001019060200180831161171357829003601f168201915b5050505050908060050154908060060154908060070160009054906101000a900473ffffffffffffffffffffffffffffffffffffffff16908060080160009054906101000a900473ffffffffffffffffffffffffffffffffffffffff16905089565b806005600082815260200190815260200160002060080160009054906101000a900473ffffffffffffffffffffffffffffffffffffffff1673ffffffffffffffffffffffffffffffffffffffff163373ffffffffffffffffffffffffffffffffffffffff1614611837576040517f08c379a000000000000000000000000000000000000000000000000000000000815260040161182e906121a3565b60405180910390fd5b81600062278d00600560008481526020019081526020016000206006015461185f91906124df565b9050804210156118a4576040517f08c379a000000000000000000000000000000000000000000000000000000000815260040161189b90612223565b60405180910390fd5b8360056000828152602001908152602001600020600401543410156118fe576040517f08c379a00000000000000000000000000000000000000000000000000000000081526004016118f5906121c3565b60405180910390fd5b600073ffffffffffffffffffffffffffffffffffffffff163373ffffffffffffffffffffffffffffffffffffffff16141561193857600080fd5b60006005600087815260200190815260200160002060070160019054906101000a900473ffffffffffffffffffffffffffffffffffffffff1690506000600560008881526020019081526020016000206004015490508173ffffffffffffffffffffffffffffffffffffffff166108fc829081150290604051600060405180830381858888f193505050501580156119d4573d6000803e3d6000fd5b50336005600089815260200190815260200160002060080160006101000a81548173ffffffffffffffffffffffffffffffffffffffff021916908373ffffffffffffffffffffffffffffffffffffffff16021790555060006005600089815260200190815260200160002060070160006101000a81548160ff02191690831515021790555060046000815480929190611a6c90612622565b91905055506040518061012001604052806004548152602001888152602001600560008a8152602001908152602001600020600101548152602001600560008a81526020019081526020016000206002018054611ac8906125bf565b80601f0160208091040260200160405190810160405280929190818152602001828054611af4906125bf565b8015611b415780601f10611b1657610100808354040283529160200191611b41565b820191906000526020600020905b815481529060010190602001808311611b2457829003601f168201915b50505050508152602001600560008a81526020019081526020016000206003018054611b6c906125bf565b80601f0160208091040260200160405190810160405280929190818152602001828054611b98906125bf565b8015611be55780601f10611bba57610100808354040283529160200191611be5565b820191906000526020600020905b815481529060010190602001808311611bc857829003601f168201915b505050505081526020018281526020014281526020013373ffffffffffffffffffffffffffffffffffffffff168152602001600560008a815260200190815260200160002060070160019054906101000a900473ffffffffffffffffffffffffffffffffffffffff1673ffffffffffffffffffffffffffffffffffffffff168152506007600060045481526020019081526020016000206000820151816000015560208201518160010155604082015181600201556060820151816003019080519060200190611cb6929190611d83565b506080820151816004019080519060200190611cd3929190611d83565b5060a0820151816005015560c0820151816006015560e08201518160070160006101000a81548173ffffffffffffffffffffffffffffffffffffffff021916908373ffffffffffffffffffffffffffffffffffffffff1602179055506101008201518160080160006101000a81548173ffffffffffffffffffffffffffffffffffffffff021916908373ffffffffffffffffffffffffffffffffffffffff16021790555090505050505050505050565b828054611d8f906125bf565b90600052602060002090601f016020900481019282611db15760008555611df8565b82601f10611dca57805160ff1916838001178555611df8565b82800160010185558215611df8579182015b82811115611df7578251825591602001919060010190611ddc565b5b509050611e059190611e09565b5090565b5b80821115611e22576000816000905550600101611e0a565b5090565b6000611e39611e3484612492565b61246d565b905082815260208101848484011115611e5157600080fd5b611e5c84828561257d565b509392505050565b600082601f830112611e7557600080fd5b8135611e85848260208601611e26565b91505092915050565b600081359050611e9d816128c9565b92915050565b60008060008060808587031215611eb957600080fd5b600085013567ffffffffffffffff811115611ed357600080fd5b611edf87828801611e64565b945050602085013567ffffffffffffffff811115611efc57600080fd5b611f0887828801611e64565b9350506040611f1987828801611e8e565b9250506060611f2a87828801611e8e565b91505092959194509250565b600060208284031215611f4857600080fd5b6000611f5684828501611e8e565b91505092915050565b611f6881612535565b82525050565b611f7781612547565b82525050565b6000611f88826124c3565b611f9281856124ce565b9350611fa281856020860161258c565b611fab816126f8565b840191505092915050565b6000611fc36017836124ce565b9150611fce82612709565b602082019050919050565b6000611fe6601b836124ce565b9150611ff182612732565b602082019050919050565b6000612009601d836124ce565b91506120148261275b565b602082019050919050565b600061202c601b836124ce565b915061203782612784565b602082019050919050565b600061204f602f836124ce565b915061205a826127ad565b604082019050919050565b6000612072601f836124ce565b915061207d826127fc565b602082019050919050565b6000612095601b836124ce565b91506120a082612825565b602082019050919050565b60006120b86020836124ce565b91506120c38261284e565b602082019050919050565b60006120db6015836124ce565b91506120e682612877565b602082019050919050565b60006120fe600f836124ce565b9150612109826128a0565b602082019050919050565b61211d81612573565b82525050565b6000602082019050818103600083015261213c81611fb6565b9050919050565b6000602082019050818103600083015261215c81611fd9565b9050919050565b6000602082019050818103600083015261217c81611ffc565b9050919050565b6000602082019050818103600083015261219c8161201f565b9050919050565b600060208201905081810360008301526121bc81612042565b9050919050565b600060208201905081810360008301526121dc81612065565b9050919050565b600060208201905081810360008301526121fc81612088565b9050919050565b6000602082019050818103600083015261221c816120ab565b9050919050565b6000602082019050818103600083015261223c816120ce565b9050919050565b6000602082019050818103600083015261225c816120f1565b9050919050565b60006020820190506122786000830184612114565b92915050565b600061014082019050612294600083018d612114565b6122a1602083018c612114565b81810360408301526122b3818b611f7d565b905081810360608301526122c7818a611f7d565b90506122d66080830189612114565b6122e360a0830188612114565b6122f060c0830187612114565b6122fd60e0830186611f6e565b61230b610100830185611f5f565b612319610120830184611f5f565b9b9a5050505050505050505050565b60006101408201905061233e600083018d612114565b61234b602083018c612114565b818103604083015261235d818b611f7d565b90508181036060830152612371818a611f7d565b90506123806080830189612114565b61238d60a0830188612114565b61239a60c0830187612114565b6123a760e0830186612114565b6123b5610100830185611f5f565b6123c3610120830184611f5f565b9b9a5050505050505050505050565b6000610120820190506123e8600083018c612114565b6123f5602083018b612114565b612402604083018a612114565b81810360608301526124148189611f7d565b905081810360808301526124288188611f7d565b905061243760a0830187612114565b61244460c0830186612114565b61245160e0830185611f5f565b61245f610100830184611f5f565b9a9950505050505050505050565b6000612477612488565b905061248382826125f1565b919050565b6000604051905090565b600067ffffffffffffffff8211156124ad576124ac6126c9565b5b6124b6826126f8565b9050602081019050919050565b600081519050919050565b600082825260208201905092915050565b60006124ea82612573565b91506124f583612573565b9250827fffffffffffffffffffffffffffffffffffffffffffffffffffffffffffffffff0382111561252a5761252961266b565b5b828201905092915050565b600061254082612553565b9050919050565b60008115159050919050565b600073ffffffffffffffffffffffffffffffffffffffff82169050919050565b6000819050919050565b82818337600083830152505050565b60005b838110156125aa57808201518184015260208101905061258f565b838111156125b9576000848401525b50505050565b600060028204905060018216806125d757607f821691505b602082108114156125eb576125ea61269a565b5b50919050565b6125fa826126f8565b810181811067ffffffffffffffff82111715612619576126186126c9565b5b80604052505050565b600061262d82612573565b91507fffffffffffffffffffffffffffffffffffffffffffffffffffffffffffffffff8214156126605761265f61266b565b5b600182019050919050565b7f4e487b7100000000000000000000000000000000000000000000000000000000600052601160045260246000fd5b7f4e487b7100000000000000000000000000000000000000000000000000000000600052602260045260246000fd5b7f4e487b7100000000000000000000000000000000000000000000000000000000600052604160045260246000fd5b6000601f19601f8301169050919050565b7f41677265656d656e7420616c726561647920456e646564000000000000000000600082015250565b7f526f6f6d2069732063757272656e746c79204f636375706965642e0000000000600082015250565b7f4f6e6c79206c616e646c6f72642063616e206163636573732074686973000000600082015250565b7f4f6e6c792054656e616e742063616e2061636365737320746869730000000000600082015250565b7f4e6f2070726576696f75732061677265656d656e7420666f756e64207769746860008201527f20796f752026206c616e646c6f72640000000000000000000000000000000000602082015250565b7f4e6f7420656e6f75676820457468657220696e20796f75722077616c6c657400600082015250565b7f526f6f6d2069732063757272656e746c79206f636375706965642e0000000000600082015250565b7f54696d65206973206c65667420666f7220636f6e747261637420746f20656e64600082015250565b7f54696d65206c65667420746f207061792052656e740000000000000000000000600082015250565b7f496e76616c696420416464726573730000000000000000000000000000000000600082015250565b6128d281612573565b81146128dd57600080fd5b5056fea2646970667358221220652d57670d93256dc048e4d3e30e78bd2d35bb0d4994a0f69003c94e7e51ed1064736f6c63430008040033",
  "linkReferences": {},
  "deployedLinkReferences": {}
}